:100000000C9462000C948A000C948A000C948A0070
:100010000C948A000C948A000C948A000C948A0038
:100020000C948A000C948A000C948A000C948A0028
:100030000C948A000C948A000C948A000C948A0018
:100040000C9411030C948A000C94DF020C94B902F6
:100050000C948A000C948A000C948A000C948A00F8
:100060000C948A000C948A00000000080002010031
:100070000003040700000000000000000000000072
:1000800023002600290000000000250028002B0086
:1000900000000000240027002A00040404040404D3
:1000A0000404020202020202030303030303010227
:1000B00004081020408001020408102001020408F6
:1000C0001020990411241FBECFEFD8E0DEBFCDBFB2
:1000D00011E0A0E0B1E0ECE9F9E002C005900D927A
:1000E000AE35B107D9F722E0AEE5B1E001C01D920F
:1000F000A830B207E1F710E0C2E6D0E004C02197D3
:10010000FE010E94C604C136D107C9F70E945B03F5
:100110000C94CC040C94000090E0FC01E255FF4FDD
:10012000249186569F4FFC018491882399F090E09A
:10013000880F991FFC01E057FF4FA591B491FC0176
:10014000EA57FF4F859194918FB7F894EC91E22B89
:10015000EC938FBF0895AF92BF92CF92DF92EF9250
:10016000FF920F931F93CF93DF936C017B018B0161
:10017000040F151FEB015E01AE18BF08C017D107B1
:1001800059F06991D601ED91FC910190F081E02D3B
:10019000C6010995892B79F7C501DF91CF911F9190
:1001A0000F91FF90EF90DF90CF90BF90AF900895A8
:1001B000FC01538D448D252F30E0842F90E0821B6D
:1001C000930B541710F0CF96089501970895FC01F2
:1001D000918D828D981761F0A28DAE0FBF2FB11D4A
:1001E0005D968C91928D9F5F9F73928F90E00895A2
:1001F0008FEF9FEF0895FC01918D828D981731F05C
:10020000828DE80FF11D858D90E008958FEF9FEFAF
:100210000895FC01918D228D892F90E0805C9F4F85
:10022000821B91098F73992708958BE691E00E94B4
:10023000090121E0892B09F420E0822F089580E054
:1002400090E0892B29F00E94150181110C94000087
:100250000895FC01A48DA80FB92FB11DA35ABF4F5B
:100260002C91848D90E001968F739927848FA689B5
:10027000B7892C93A089B1898C91837080648C9309
:10028000938D848D981306C00288F389E02D8081B8
:100290008F7D80830895EF92FF920F931F93CF93EA
:1002A000DF93EC0181E0888F9B8D8C8D98131AC0B1
:1002B000E889F989808185FF15C09FB7F894EE8998
:1002C000FF896083E889F9898081837080648083F5
:1002D0009FBF81E090E0DF91CF911F910F91FF9040
:1002E000EF900895F62E0B8D10E00F5F1F4F0F73E8
:1002F0001127E02E8C8D8E110CC00FB607FCFACFA3
:10030000E889F989808185FFF5CFCE010E94290116
:10031000F1CFEB8DEC0FFD2FF11DE35AFF4FF08273
:100320009FB7F8940B8FEA89FB8980818062CFCFD9
:10033000CF93DF93EC01888D8823B9F0AA89BB891C
:10034000E889F9898C9185FD03C0808186FD0DC007
:100350000FB607FCF7CF8C9185FFF2CF808185FF28
:10036000EDCFCE010E942901E9CFDF91CF91089511
:10037000833081F028F4813099F08230A9F008951B
:100380008730A9F08830C9F08430B1F480918000C2
:100390008F7D03C0809180008F77809380000895C7
:1003A00084B58F7784BD089584B58F7DFBCF809110
:1003B000B0008F778093B00008958091B0008F7D5A
:1003C000F9CFCF93DF93282F30E0F901E859FF4FA1
:1003D0008491F901E255FF4FD491F901E656FF4FA0
:1003E000C491CC23A1F081110E94B801EC2FF0E060
:1003F000EE0FFF1FE458FF4FA591B491EC91ED2350
:1004000081E090E009F480E0DF91CF91089580E0F1
:1004100090E0FACF1F93CF93DF93282F30E0F901BC
:10042000E859FF4F8491F901E255FF4FD491F9014A
:10043000E656FF4FC491CC23A9F0162F81110E94DC
:10044000B801EC2FF0E0EE0FFF1FEA57FF4FA59128
:10045000B4918FB7F894EC91111108C0D095DE23B8
:10046000DC938FBFDF91CF911F910895DE2BF8CFE2
:100470003FB7F8948091630190916401A091650168
:10048000B091660126B5A89B05C02F3F19F00196D3
:10049000A11DB11D3FBFBA2FA92F982F8827BC01DE
:1004A000CD01620F711D811D911D42E0660F771F06
:1004B000881F991F4A95D1F708958F929F92AF9206
:1004C000BF92CF92DF92EF92FF924B015C010E94AC
:1004D00038026B017C010E9438026C197D098E097B
:1004E0009F09683E734081059105A8F321E0821AB7
:1004F0009108A108B10888EEC80E83E0D81EE11C5F
:10050000F11C81149104A104B10429F7FF90EF902C
:10051000DF90CF90BF90AF909F908F900895CF9332
:10052000DF93FC0101900020E9F73197AF01481BF0
:10053000590BBC018BE691E00E94AB00EC0142E05C
:1005400050E062E171E08BE691E00E94AB008C0F1D
:100550009D1FDF91CF91089585E191E00E948F0268
:1005600060E080E00E940A0210926A011092690124
:1005700008951F920F920FB60F9211242F933F935D
:100580004F935F936F937F938F939F93AF93BF939B
:10059000EF93FF938BE691E00E942901FF91EF9189
:1005A000BF91AF919F918F917F916F915F914F918B
:1005B0003F912F910F900FBE0F901F9018951F9293
:1005C0000F920FB60F9211242F938F939F93EF9357
:1005D000FF93E0917B01F0917C018081E0918101AA
:1005E000F091820182FD1BC09081809184018F5F18
:1005F0008F7320918501821741F0E0918401F0E032
:10060000E559FE4F958F80938401FF91EF919F9163
:100610008F912F910F900FBE0F901F901895808192
:10062000F4CF1F920F920FB60F9211242F933F9386
:100630008F939F93AF93BF9380915F0190916001DF
:10064000A0916101B091620130915E0123E0230F1E
:100650002D3758F50196A11DB11D20935E018093A1
:100660005F0190936001A0936101B093620180915A
:10067000630190916401A0916501B09166010196BA
:10068000A11DB11D8093630190936401A093650146
:10069000B0936601BF91AF919F918F913F912F9140
:1006A0000F900FBE0F901F90189526E8230F02960B
:1006B000A11DB11DD2CF789484B5826084BD84B56C
:1006C000816084BD85B5826085BD85B5816085BD4D
:1006D00080916E00816080936E0010928100809105
:1006E000810082608093810080918100816080938D
:1006F0008100809180008160809380008091B100B2
:1007000084608093B1008091B00081608093B000DC
:1007100080917A00846080937A0080917A00826070
:1007200080937A0080917A00816080937A00809132
:100730007A00806880937A001092C100E0917B017A
:10074000F0917C0182E08083E0917701F091780163
:100750001082E0917901F0917A018FEC8083109200
:100760008301E0917F01F091800186E08083E09138
:100770007D01F0917E01808180618083E0917D0127
:10078000F0917E01808188608083E0917D01F0910D
:100790007E01808180688083E0917D01F0917E01FF
:1007A00080818F7D80839EEA292E90E0392E2AE970
:1007B000622E20E0722E00E010E080E00E94E10155
:1007C000892B09F44BC080E00E94E101609169012E
:1007D00070916A018617970791F0C0916701D091D7
:1007E000680180E0CB30D1058CF10E94E10190934B
:1007F0006A018093690182E291E00E948F0280E0A9
:100800000E948C0060E080E00E940A0280E00E946A
:100810008C0060E080E00E940A0280E00E948C0070
:1008200060E080E00E940A0268EE73E080E090E001
:100830000E945D020115110509F4BFCF0E94150148
:10084000882309F4BACF0E940000B7CF0E940A02A1
:100850002196D0936801C0936701D1CFF1015490E4
:10086000F301C4910E9438026B017C01D0E0CC0FEF
:10087000DD1FC458DF4FFE01A591B4918C918521F5
:10088000581601F1FE01A591B4918C918521581261
:100890003EC00E9438024B015C01FE01A591B4915B
:1008A0008C9185215816E1F10E9438026819790966
:1008B0008A099B09683B7B408105910550F00E94A5
:1008C000AC02B8CF0E9438026C157D058E059F05DD
:1008D00091F288E491E00E948F0261E080E00E9442
:1008E0000A0268EC70E080E090E00E945D0260E047
:1008F00080E00E940A02CDE3D0E080E00E94E101A6
:10090000019711F00E94AC022197B9F7D8CF0E944D
:1009100038026C157D058E059F0509F4B3CFD9CF3C
:100920000E9438026C157D058E059F0509F4B5CF30
:10093000D0CFEBE6F1E01382128288EE93E0A0E0E4
:10094000B0E084839583A683B78384E091E09183AC
:10095000808385EC90E09587848784EC90E097878E
:10096000868780EC90E0918B808B81EC90E0938B7C
:10097000828B82EC90E0958B848B86EC90E0978B59
:10098000868B118E128E138E148E0895EE0FFF1F1C
:0C0990000590F491E02D0994F894FFCF3D
:10099C00000000004B01AB00D80098010901E700F2
:1009AC00FB000D0A00506F776572206F66662E2E65
:1009BC002E00466174616C3A20636F756C64206E16
:1009CC006F742075706461746520626F617264204D
:1009DC00737461747573210053656E642073696759
:0E09EC006E616C3A205349475445524D6600E7
:00000001FF
